:1000000009C017C01CC027C013C012C011C010C047
:100010000FC00EC011241FBECFE9CDBF20E0A0E667
:10002000B0E001C01D92AF36B207E1F7FCD043C18A
:10003000E7CFB19B03C081E0809363001895B59B27
:1000400004C081E08093650005C01092650084E0E3
:100050008093680018951F920F920FB60F9211248B
:100060008F939F93809168008F5F8A3019F08093FF
:1000700068003CC0109268008091650081112EC01C
:10008000C09880916000811114C08091610081301E
:1000900049F580916300882329F1C298C39A82E0D0
:1000A0008093600080916A008093660010926700E0
:1000B00019C0813061F4C498809163008111EDCF43
:1000C0001092620010926000109261000BC08330A9
:1000D00049F4109262001092600004C09091640094
:1000E0009813C09A809165008093640080916700A6
:1000F0008F5F843619F0809367008EC0109267007E
:1001000080916000811139C080916300882321F0C3
:10011000C39902C0C29A01C0C29880916100823026
:1001200071F480916400882371F1809163008111E2
:100130000CC0C298C398C098C49A81E015C08111C0
:1001400022C080916400882339F0C09A83E08093B4
:10015000600080916C000CC080916300882399F04E
:10016000C498C298C39A82E08093600080916A002C
:10017000809366001092670006C0833021F488B334
:1001800091E0892788BB80916600882309F442C0EA
:1001900081508093660081113DC080916000813064
:1001A00071F4C498C09A80916200882321F08091F4
:1001B0006E00809366001092600081E00AC0823079
:1001C00059F480916B00811101C0C39810926000B6
:1001D00082E0809361001EC0833089F480916D00BD
:1001E00080936200C398C098C49A81E080936000B5
:1001F00080916A0080936600109267000BC0809126
:100200006200882339F08150809362008091610000
:10021000813041F3109263009F918F910F900FBE38
:100220000F901F90189580E886BD16BC8DE187BBA6
:10023000C1E0C5BDC5BF88E181BD8EE081BD80E65E
:100240008BBF80E285BB46E050E060E070E089E66D
:1002500090E022D0809169008F3F89F488E48093F8
:10026000690085E080936A00C0936B0084E6809308
:100270006C0083E080936D008AEF80936E00809124
:10028000690086BF83E08FBD8BE083BF82E089BFBA
:100290007894A8950000FDCFA82F862FE82FE1992C
:1002A000FECF1FBA05C0EEBBE09AE3950DB20D92EA
:0A02B0004150C8F70895F894FFCFFD
:00000001FF
